:060000000C94E2000C94D8
:1000060000000C9400000C9400000C9400000C946A
:1000160000000C9400000C9400000C9400000C945A
:1000260000000C9400000C9400000C9400000C944A
:100036004E010C9400000C9400000C9400000C94EB
:1000460000000C9400000C9400000C941C010C940D
:1000560000000C9439010C9400000C9400000C94E0
:1000660000000C9400000C9400000C9400000C940A
:1000760000000C940000040404150E1F000000008C
:10008600150E1F041F0404040000000000000000F9
:100096000000000000000000000000000004000056
:1000A600000000000000040400000000000000043E
:1000B600040000000000000004040000000000002E
:1000C600000404000000000000000404000000001A
:1000D600000000040400000000000000040400000A
:1000E60000000000000404000000000000000404FA
:1000F60000000000000000000400000000000000F6
:1001060000009A00A400AE00B800C200CC00D600E1
:10011600E000EA00F400FE0002000100000010000A
:1001260000000000000000000000000000000000C9
:1001360000000000000000000000000000000000B9
:1001460000000000000000000000000000000000A9
:100156000000000000000000000000000000000099
:100166000000030053544152542047414D4521009D
:1001760047414D45204F5645522100436F6E6772E9
:100186006174756C6174696F6E7321594F5527528E
:1001960045205448452042455354210001002D4E28
:1001A600414E00494E46000080C01600100208016C
:1001B60001002602A20102002A02AE010000F89404
:1001C600EE27EFBBF1E0F5BFE5BFF8E1A895A4B7D0
:1001D600A77FA4BFF0936000E09360008DE0A2E0EB
:1001E600BB27ED938A95E9F780E094E0A0E0B1E0C3
:1001F600ED930197E9F7E0EBF1E085919591009792
:1002060061F0A591B59105901590BF01F00105909B
:100216000D920197E1F7FB01F0CFE0E0EEBBEABDFE
:10022600EBBDEFEFEDBFE4E0EEBFC0E0D2E00C9433
:10023600B6018AD21A930A931091C0000091C600A3
:10024600E12FEC7181F4E32D3394F0E0E050FE4FA2
:100256000083E8E0E31509F433245394E8E0E51558
:1002660011F45524F09A0991199110C06DD26620A7
:1002760069F06A94E72D7394F0E0E85FFD4FE08142
:10028600E093C600E8E0E71509F47724E991EFBFAB
:10029600F991E99118951895AA931A930A93EA8108
:1002A600EE0FEE0FEE0FE0640E2F10E01A3060F442
:1002B6000A930395EC81FD813196EC83FD8331979A
:1002C600A491D8D11F5FF2CF198108812596089590
:1002D60040D25F9734F442D2EF5F48D2A6E9B0E04D
:1002E60035D30C944D0335D2519734F037D2E150C3
:1002F6003DD2AAEFB0E02AD30C944D032AD212972E
:10030600B9F445D2A885B985EBE0F0E0EA1BFB0B12
:10031600A0E1B2E04AD2ED91FD91FA93EA93A4E00E
:10032600BBDF48D2EA81EA93AD81A9D1A4E048D2E5
:10033600E881F981309729F42AD23CD2AEE1B0E0C7
:1003460005D32A960895BA93AA93E0E9F0E0FA93C2
:10035600EA93A2E0A1DFEA81EA93A98190D1A2E023
:100366002FD224960895EF972F978CE4A0E0B0E063
:10037600EEE1F1E0B3D207E110E021E030E05E9873
:10038600A0EAB8D121D2AAE6B1E0A1D1A8EBBBE0A0
:10039600DDD2A0EAAFD1E0E0DE01A45BBF4FED9372
:1003A600EC93DE01A45BBF4F0E94A304129704F5F1
:1003B60040E050E04031E0E05E078CF4E6E8F0E033
:1003C600FA93EA93A0E068DF4A93DE01A35BBF4F8E
:1003D600AC9155D1A0E06AD14F5F5F4FEBCFDE0104
:1003E600A45BBF4FED91FD913196FE93EE93D9CF6D
:1003F600ECE7F0E0FA93EA93A1E04EDF0A93A22F2E
:100406003ED1A1E053D1199901C0E2D1189901C09A
:10041600E4D11A9904C1E6D1EAD109F06AC0ECD157
:10042600F1D129F4EE81FF81F4D1E1D109F005C0C3
:10043600E881F981EC83FD8303C0E0E0EC83ED8382
:1004460040E050E04B30E0E05E0754F4E6D1199905
:1004560001C0BED1189901C0C0D14F5F5F4FF2CF26
:10046600AC81BD81129719F4EE81FF81EAD1EED1FC
:10047600E8D1ECD1CED1F0D1AE81BF810A171B07EE
:1004860021F4AC81BD81129709F005C0EFD1A6E732
:10049600B1E01DD121C0B6D121F4AC81BD81129746
:1004A60009F013C0E7D14AE050E055235AF05A93B9
:1004B6004A93E885F985E5D1A0E0B0E01FDF415019
:1004C6005040F3CFEE81FF8102C0C0D17097FA93FE
:1004D600EA93A1E0B0E037DFAE81BF8190971CF0D0
:1004E600E0E1F0E003C0EE81FF813296EE83FF8308
:1004F60091C078D1ED91FC911197329719F4CCD136
:1005060076D109F031C0CDD140E050E04B30E0E08B
:100516005E0754F482D1199901C05AD1189901C0C5
:100526005CD14F5F5F4FF2CF91D18BD140E050E06D
:100536004B30E0E05E076CF4B8D1AC85BD85DEDEFD
:10054600199901C045D1189901C047D14F5F5F4F36
:10055600EFCF90D17BD1709774D178D17097DE01AF
:100566001A9623D179D156C097D1ED91FD91E230FB
:10057600A0E0FA0709F04EC094D140E050E04B30BD
:10058600E0E05E0754F449D1199901C021D11899C8
:1005960001C023D14F5F5F4FF2CF58D152D140E017
:1005A60050E04B30E0E05E076CF47FD1AC85BD8552
:1005B600A5DE199901C00CD1189901C00ED14F5F63
:1005C6005F4FEFCF57D140E050E04B30E0E05E07A1
:1005D600F4F45A934A93FE01E25BFF4F0E949D0496
:1005E6007097FA93EA93E0E0F0E0FA93EA93EC85E9
:1005F600FD85FA93EA93AC85BD8580DE199901C025
:10060600E7D0189901C0E9D04F5F5F4FDECF1ED10A
:10061600709717D1EE81FF813296EE83FF83A8850E
:10062600B985909721F422D1A1E8B1E050D0EBCE64
:10063600FFCFAA93E8B1EF70AE2FE881E07FEA2BF7
:10064600E8B981E28A95F1F7429A81E28A95F1F753
:10065600429881E28A95F1F775C0AA93A881E9DFED
:10066600E881E295E883A881E4DF8AEF90E00197CC
:10067600F1F768C0AA93A981F0DF20D10BC0AA9335
:10068600E881F0E0E65DFD4FE081A981AE0FE5DF90
:100696009980888022960895A2E015D1ACE0DDDF2E
:1006A600A1E011D1E0E08E2E9E2E0895AA93A88196
:1006B600AA3011F09B1440F0E0E0EA938394A82D51
:1006C600DEDFA881AA30F1F19394F8D03BC0BA934B
:1006D600AA931A93E981FA813196E983FA833197CD
:1006E600E4911E2FE03019F0A12FE0DFF3CF18813F
:1006F60023960895AA93E7B1E06FE7B93A9A389A34
:10070600399A429840984198B880E881E058E09339
:100716002C02E881E054E0932D02A4E1B0E016D16A
:10072600D6D0D5D0D4D0A0E284DF84EF91E0019773
:10073600F1F7A8E292DFA4E090DFA5E88EDFA6E05D
:100746008CDFAADF21960895EA93FA93EFB7EA932E
:100756000895BA93AA93A881B9810895ECE7F0E0C9
:10076600FA93EA93A1E098DDE8810895EA93A1E07F
:1007760086DFA1E09BDFE0E9F0E0FA93EA93A2E0EE
:100786008BDDE881EA93A1E07ADFA2E08FCFE885EE
:10079600F985A0E1B2E0EE0FFF1FAE0FBF1FED918E
:1007A600FD91FA93EA93A3E077CDEE0FFF1FAE0F0C
:1007B600BF1F0895EE81EA93AD8161DFA3E076CF96
:1007C60075DFAEE1B0E0C2C0E0E0EA93A0E057CF4B
:1007D600D8017EDD0F5F1F4F0895D80184DD0150DB
:1007E60010400895F8017097DE019A96DECFED91DC
:1007F600FC91119730970895FE01E45BFF4F01933A
:1008060010830895AE81BF81E4E0F0E085D0309793
:1008160008957097DE019A96C8CF5A934A93FE01BF
:10082600E25BFF4F0E949D04FA93EA93E0E0F0E05A
:10083600FA93EA93EC85FD85FA93EA93AC85BD8538
:100846005DCDFA93EA93A0E0B0E07DCDFE01E45BD6
:10085600FF4F0E949D040895E2E0F0E0ED93FC93C3
:10086600E885F9853196E887F9870895A0EA42DF99
:1008760013DFAACFEBDF7097FA93EA93A1E0B0E01B
:1008860062CDFA93EA93E1E0F0E0FA93EA93EC851D
:10089600FD85FA93EA930895F8017097DE011A969A
:1008A60084CFE0E0EC83ED83A7CF5A934A93FE0111
:1008B600E25BFF4F0E949D047097E3CF409AA881A8
:1008C600CCDE40980895C9DEA3E0B0E03FC0A0E3C7
:1008D600B0DE84EF91E00197F1F70895AC0FBD1FEC
:1008E60005900D928A95E1F70895F195E195F0400E
:1008F60008950024112490E1AA0FBB1F001C111CAF
:100906000E1A1F0A18F40E0E1F1E01C0A1609A953A
:1009160099F7FD01D0010895E894B7FF04C0B19599
:10092600A195B0406894F7FDE0DFE3DFFD010EF42A
:10093600DCDF08950F920190F081E02D0F9008956D
:100946000F920D90BC91A02D0F900895109639F03E
:10095600A89588E893E10197F1F71197C9F70895EB
:00000001FF
